{
  "contractName": "EducationEvaluation",
  "abi": [
    {
      "anonymous": false,
      "inputs": [
        {
          "indexed": false,
          "internalType": "string",
          "name": "studentId",
          "type": "string"
        },
        {
          "indexed": false,
          "internalType": "string",
          "name": "subject",
          "type": "string"
        },
        {
          "indexed": false,
          "internalType": "uint256",
          "name": "score",
          "type": "uint256"
        },
        {
          "indexed": false,
          "internalType": "string",
          "name": "evaluator",
          "type": "string"
        },
        {
          "indexed": false,
          "internalType": "uint256",
          "name": "timestamp",
          "type": "uint256"
        },
        {
          "indexed": false,
          "internalType": "string",
          "name": "transactionHash",
          "type": "string"
        }
      ],
      "name": "EvaluationAdded",
      "type": "event"
    },
    {
      "inputs": [
        {
          "internalType": "uint256",
          "name": "",
          "type": "uint256"
        }
      ],
      "name": "evaluations",
      "outputs": [
        {
          "internalType": "string",
          "name": "studentId",
          "type": "string"
        },
        {
          "internalType": "string",
          "name": "subject",
          "type": "string"
        },
        {
          "internalType": "uint256",
          "name": "score",
          "type": "uint256"
        },
        {
          "internalType": "string",
          "name": "evaluator",
          "type": "string"
        },
        {
          "internalType": "uint256",
          "name": "timestamp",
          "type": "uint256"
        },
        {
          "internalType": "string",
          "name": "transactionHash",
          "type": "string"
        }
      ],
      "stateMutability": "view",
      "type": "function",
      "constant": true
    },
    {
      "inputs": [
        {
          "internalType": "string",
          "name": "_studentId",
          "type": "string"
        },
        {
          "internalType": "string",
          "name": "_subject",
          "type": "string"
        },
        {
          "internalType": "uint256",
          "name": "_score",
          "type": "uint256"
        },
        {
          "internalType": "string",
          "name": "_evaluator",
          "type": "string"
        }
      ],
      "name": "addEvaluation",
      "outputs": [],
      "stateMutability": "nonpayable",
      "type": "function"
    },
    {
      "inputs": [],
      "name": "getEvaluations",
      "outputs": [
        {
          "components": [
            {
              "internalType": "string",
              "name": "studentId",
              "type": "string"
            },
            {
              "internalType": "string",
              "name": "subject",
              "type": "string"
            },
            {
              "internalType": "uint256",
              "name": "score",
              "type": "uint256"
            },
            {
              "internalType": "string",
              "name": "evaluator",
              "type": "string"
            },
            {
              "internalType": "uint256",
              "name": "timestamp",
              "type": "uint256"
            },
            {
              "internalType": "string",
              "name": "transactionHash",
              "type": "string"
            }
          ],
          "internalType": "struct EducationEvaluation.Evaluation[]",
          "name": "",
          "type": "tuple[]"
        }
      ],
      "stateMutability": "view",
      "type": "function",
      "constant": true
    }
  ],
  "bytecode": "0x608060405234801561001057600080fd5b50611517806100206000396000f3fe608060405234801561001057600080fd5b50600436106100415760003560e01c806333c63b1714610046578063c8f0e5921461007b578063d066b42714610097575b600080fd5b610060600480360381019061005b9190610c79565b6100b5565b60405161007296959493929190610e7b565b60405180910390f35b61009560048036038101906100909190610bce565b610321565b005b61009f610458565b6040516100ac9190610e59565b60405180910390f35b600081815481106100c557600080fd5b90600052602060002090600602016000915090508060000180546100e890611375565b80601f016020809104026020016040519081016040528092919081815260200182805461011490611375565b80156101615780601f1061013657610100808354040283529160200191610161565b820191906000526020600020905b81548152906001019060200180831161014457829003601f168201915b50505050509080600101805461017690611375565b80601f01602080910402602001604051908101604052809291908181526020018280546101a290611375565b80156101ef5780601f106101c4576101008083540402835291602001916101ef565b820191906000526020600020905b8154815290600101906020018083116101d257829003601f168201915b50505050509080600201549080600301805461020a90611375565b80601f016020809104026020016040519081016040528092919081815260200182805461023690611375565b80156102835780601f1061025857610100808354040283529160200191610283565b820191906000526020600020905b81548152906001019060200180831161026657829003601f168201915b50505050509080600401549080600501805461029e90611375565b80601f01602080910402602001604051908101604052809291908181526020018280546102ca90611375565b80156103175780601f106102ec57610100808354040283529160200191610317565b820191906000526020600020905b8154815290600101906020018083116102fa57829003601f168201915b5050505050905086565b600061032c33610713565b905060006040518060c0016040528087815260200186815260200185815260200184815260200142815260200183815250908060018154018082558091505060019003906000526020600020906006020160009091909190915060008201518160000190805190602001906103a2929190610aae565b5060208201518160010190805190602001906103bf929190610aae565b506040820151816002015560608201518160030190805190602001906103e6929190610aae565b506080820151816004015560a082015181600501908051906020019061040d929190610aae565b5050507f23cc3bffbd22639bc59b5e0f5d15d3845229ece9409e157fd48da91bba7d8ab785858585428660405161044996959493929190610e7b565b60405180910390a15050505050565b60606000805480602002602001604051908101604052809291908181526020016000905b8282101561070a57838290600052602060002090600602016040518060c00160405290816000820180546104af90611375565b80601f01602080910402602001604051908101604052809291908181526020018280546104db90611375565b80156105285780601f106104fd57610100808354040283529160200191610528565b820191906000526020600020905b81548152906001019060200180831161050b57829003601f168201915b5050505050815260200160018201805461054190611375565b80601f016020809104026020016040519081016040528092919081815260200182805461056d90611375565b80156105ba5780601f1061058f576101008083540402835291602001916105ba565b820191906000526020600020905b81548152906001019060200180831161059d57829003601f168201915b50505050508152602001600282015481526020016003820180546105dd90611375565b80601f016020809104026020016040519081016040528092919081815260200182805461060990611375565b80156106565780601f1061062b57610100808354040283529160200191610656565b820191906000526020600020905b81548152906001019060200180831161063957829003601f168201915b505050505081526020016004820154815260200160058201805461067990611375565b80601f01602080910402602001604051908101604052809291908181526020018280546106a590611375565b80156106f25780601f106106c7576101008083540402835291602001916106f2565b820191906000526020600020905b8154815290600101906020018083116106d557829003601f168201915b5050505050815250508152602001906001019061047c565b50505050905090565b60606000602a67ffffffffffffffff811115610758577f4e487b7100000000000000000000000000000000000000000000000000000000600052604160045260246000fd5b6040519080825280601f01601f19166020018201604052801561078a5781602001600182028036833780820191505090505b5090507f3000000000000000000000000000000000000000000000000000000000000000816000815181106107e8577f4e487b7100000000000000000000000000000000000000000000000000000000600052603260045260246000fd5b60200101907effffffffffffffffffffffffffffffffffffffffffffffffffffffffffffff1916908160001a9053507f780000000000000000000000000000000000000000000000000000000000000081600181518110610872577f4e487b7100000000000000000000000000000000000000000000000000000000600052603260045260246000fd5b60200101907effffffffffffffffffffffffffffffffffffffffffffffffffffffffffffff1916908160001a90535060005b6014811015610a5e5760008160136108bc91906112b4565b60086108c8919061121f565b60026108d49190611101565b8573ffffffffffffffffffffffffffffffffffffffff166108f5919061104c565b60f81b9050600060108260f81c61090c919061107d565b60f81b905060008160f81c60106109239190611279565b8360f81c61093191906112e8565b60f81b905061093f82610a68565b85600286600261094f919061121f565b6109599190610fbf565b81518110610990577f4e487b7100000000000000000000000000000000000000000000000000000000600052603260045260246000fd5b60200101907effffffffffffffffffffffffffffffffffffffffffffffffffffffffffffff1916908160001a9053506109c881610a68565b8560038660026109d8919061121f565b6109e29190610fbf565b81518110610a19577f4e487b7100000000000000000000000000000000000000000000000000000000600052603260045260246000fd5b60200101907effffffffffffffffffffffffffffffffffffffffffffffffffffffffffffff1916908160001a9053505050508080610a56906113a7565b9150506108a4565b5080915050919050565b6000600a8260f81c60ff161015610a935760308260f81c610a899190611015565b60f81b9050610aa9565b60578260f81c610aa39190611015565b60f81b90505b919050565b828054610aba90611375565b90600052602060002090601f016020900481019282610adc5760008555610b23565b82601f10610af557805160ff1916838001178555610b23565b82800160010185558215610b23579182015b82811115610b22578251825591602001919060010190610b07565b5b509050610b309190610b34565b5090565b5b80821115610b4d576000816000905550600101610b35565b5090565b6000610b64610b5f84610f29565b610ef8565b905082815260208101848484011115610b7c57600080fd5b610b87848285611333565b509392505050565b600082601f830112610ba057600080fd5b8135610bb0848260208601610b51565b91505092915050565b600081359050610bc8816114ca565b92915050565b60008060008060808587031215610be457600080fd5b600085013567ffffffffffffffff811115610bfe57600080fd5b610c0a87828801610b8f565b945050602085013567ffffffffffffffff811115610c2757600080fd5b610c3387828801610b8f565b9350506040610c4487828801610bb9565b925050606085013567ffffffffffffffff811115610c6157600080fd5b610c6d87828801610b8f565b91505092959194509250565b600060208284031215610c8b57600080fd5b6000610c9984828501610bb9565b91505092915050565b6000610cae8383610d9d565b905092915050565b6000610cc182610f69565b610ccb8185610f8c565b935083602082028501610cdd85610f59565b8060005b85811015610d195784840389528151610cfa8582610ca2565b9450610d0583610f7f565b925060208a01995050600181019050610ce1565b50829750879550505050505092915050565b6000610d3682610f74565b610d408185610f9d565b9350610d50818560208601611342565b610d59816114ac565b840191505092915050565b6000610d6f82610f74565b610d798185610fae565b9350610d89818560208601611342565b610d92816114ac565b840191505092915050565b600060c0830160008301518482036000860152610dba8282610d2b565b91505060208301518482036020860152610dd48282610d2b565b9150506040830151610de96040860182610e3b565b5060608301518482036060860152610e018282610d2b565b9150506080830151610e166080860182610e3b565b5060a083015184820360a0860152610e2e8282610d2b565b9150508091505092915050565b610e448161131c565b82525050565b610e538161131c565b82525050565b60006020820190508181036000830152610e738184610cb6565b905092915050565b600060c0820190508181036000830152610e958189610d64565b90508181036020830152610ea98188610d64565b9050610eb86040830187610e4a565b8181036060830152610eca8186610d64565b9050610ed96080830185610e4a565b81810360a0830152610eeb8184610d64565b9050979650505050505050565b6000604051905081810181811067ffffffffffffffff82111715610f1f57610f1e61147d565b5b8060405250919050565b600067ffffffffffffffff821115610f4457610f4361147d565b5b601f19601f8301169050602081019050919050565b6000819050602082019050919050565b600081519050919050565b600081519050919050565b6000602082019050919050565b600082825260208201905092915050565b600082825260208201905092915050565b600082825260208201905092915050565b6000610fca8261131c565b9150610fd58361131c565b9250827fffffffffffffffffffffffffffffffffffffffffffffffffffffffffffffffff0382111561100a576110096113f0565b5b828201905092915050565b600061102082611326565b915061102b83611326565b92508260ff03821115611041576110406113f0565b5b828201905092915050565b60006110578261131c565b91506110628361131c565b9250826110725761107161141f565b5b828204905092915050565b600061108882611326565b915061109383611326565b9250826110a3576110a261141f565b5b828204905092915050565b6000808291508390505b60018511156110f8578086048111156110d4576110d36113f0565b5b60018516156110e35780820291505b80810290506110f1856114bd565b94506110b8565b94509492505050565b600061110c8261131c565b91506111178361131c565b92506111447fffffffffffffffffffffffffffffffffffffffffffffffffffffffffffffffff848461114c565b905092915050565b60008261115c5760019050611218565b8161116a5760009050611218565b8160018114611180576002811461118a576111b9565b6001915050611218565b60ff84111561119c5761119b6113f0565b5b8360020a9150848211156111b3576111b26113f0565b5b50611218565b5060208310610133831016604e8410600b84101617156111ee5782820a9050838111156111e9576111e86113f0565b5b611218565b6111fb84848460016110ae565b92509050818404811115611212576112116113f0565b5b81810290505b9392505050565b600061122a8261131c565b91506112358361131c565b9250817fffffffffffffffffffffffffffffffffffffffffffffffffffffffffffffffff048311821515161561126e5761126d6113f0565b5b828202905092915050565b600061128482611326565b915061128f83611326565b92508160ff04831182151516156112a9576112a86113f0565b5b828202905092915050565b60006112bf8261131c565b91506112ca8361131c565b9250828210156112dd576112dc6113f0565b5b828203905092915050565b60006112f382611326565b91506112fe83611326565b925082821015611311576113106113f0565b5b828203905092915050565b6000819050919050565b600060ff82169050919050565b82818337600083830152505050565b60005b83811015611360578082015181840152602081019050611345565b8381111561136f576000848401525b50505050565b6000600282049050600182168061138d57607f821691505b602082108114156113a1576113a061144e565b5b50919050565b60006113b28261131c565b91507fffffffffffffffffffffffffffffffffffffffffffffffffffffffffffffffff8214156113e5576113e46113f0565b5b600182019050919050565b7f4e487b7100000000000000000000000000000000000000000000000000000000600052601160045260246000fd5b7f4e487b7100000000000000000000000000000000000000000000000000000000600052601260045260246000fd5b7f4e487b7100000000000000000000000000000000000000000000000000000000600052602260045260246000fd5b7f4e487b7100000000000000000000000000000000000000000000000000000000600052604160045260246000fd5b6000601f19601f8301169050919050565b60008160011c9050919050565b6114d38161131c565b81146114de57600080fd5b5056fea26469706673582212200b41714ad93df52db2a0452b0ddfd3f1bca23a1c3c8d067e8884021f0b9e31ca64736f6c63430008000033",
  "immutableReferences": {},
  "source": "// SPDX-License-Identifier: MIT\r\npragma solidity ^0.8.0;\r\n\r\ncontract EducationEvaluation {\r\n    struct Evaluation {\r\n        string studentId;\r\n        string subject;\r\n        uint256 score;\r\n        string evaluator;\r\n        uint256 timestamp;\r\n        string transactionHash;\r\n    }\r\n\r\n    Evaluation[] public evaluations;\r\n\r\n    event EvaluationAdded(string studentId, string subject, uint256 score, string evaluator, uint256 timestamp, string transactionHash);\r\n\r\n    function addEvaluation(\r\n        string memory _studentId,\r\n        string memory _subject,\r\n        uint256 _score,\r\n        string memory _evaluator\r\n    ) public {\r\n        string memory txHash = toAsciiString(msg.sender);\r\n        evaluations.push(Evaluation({\r\n            studentId: _studentId,\r\n            subject: _subject,\r\n            score: _score,\r\n            evaluator: _evaluator,\r\n            timestamp: block.timestamp,\r\n            transactionHash: txHash\r\n        }));\r\n        emit EvaluationAdded(_studentId, _subject, _score, _evaluator, block.timestamp, txHash);\r\n    }\r\n\r\n    function getEvaluations() public view returns (Evaluation[] memory) {\r\n        return evaluations;\r\n    }\r\n\r\n    function toAsciiString(address x) private pure returns (string memory) {\r\n        bytes memory s = new bytes(42);\r\n        s[0] = '0';\r\n        s[1] = 'x';\r\n        for (uint i = 0; i < 20; i++) {\r\n            bytes1 b = bytes1(uint8(uint(uint160(x)) / (2**(8*(19 - i)))));\r\n            bytes1 hi = bytes1(uint8(b) / 16);\r\n            bytes1 lo = bytes1(uint8(b) - 16 * uint8(hi));\r\n            s[2*i + 2] = char(hi);\r\n            s[2*i + 3] = char(lo);            \r\n        }\r\n        return string(s);\r\n    }\r\n\r\n    function char(bytes1 b) private pure returns (bytes1 c) {\r\n        if (uint8(b) < 10) return bytes1(uint8(b) + 0x30);\r\n        else return bytes1(uint8(b) + 0x57);\r\n    }\r\n}\r\n",
  "sourcePath": "C:\\Users\\preet\\Desktop\\Evaluation_system\\contracts\\EducationEvaluation.sol",
  "compiler": {
    "name": "solc",
    "version": "0.8.0+commit.c7dfd78e.Emscripten.clang"
  },
  "schemaVersion": "3.4.16",
  "updatedAt": "2024-06-08T06:19:17.295Z",
  "networkType": "ethereum",
  "devdoc": {
    "kind": "dev",
    "methods": {},
    "version": 1
  },
  "userdoc": {
    "kind": "user",
    "methods": {},
    "version": 1
  }
}